{
  "contractName": "SimpleStorage",
  "abi": [
    {
      "inputs": [],
      "name": "contract_amount",
      "outputs": [
        {
          "internalType": "uint256",
          "name": "",
          "type": "uint256"
        }
      ],
      "stateMutability": "view",
      "type": "function",
      "constant": true
    },
    {
      "inputs": [],
      "name": "dummy",
      "outputs": [
        {
          "internalType": "uint256",
          "name": "",
          "type": "uint256"
        }
      ],
      "stateMutability": "view",
      "type": "function",
      "constant": true
    },
    {
      "inputs": [
        {
          "internalType": "address",
          "name": "seller",
          "type": "address"
        },
        {
          "internalType": "uint256",
          "name": "bid",
          "type": "uint256"
        }
      ],
      "name": "placeBid",
      "outputs": [],
      "stateMutability": "nonpayable",
      "type": "function"
    },
    {
      "inputs": [],
      "name": "setdummy",
      "outputs": [
        {
          "internalType": "uint256",
          "name": "",
          "type": "uint256"
        }
      ],
      "stateMutability": "view",
      "type": "function",
      "constant": true
    },
    {
      "inputs": [
        {
          "internalType": "address",
          "name": "seller",
          "type": "address"
        }
      ],
      "name": "getHighestBid",
      "outputs": [
        {
          "internalType": "uint256",
          "name": "",
          "type": "uint256"
        }
      ],
      "stateMutability": "view",
      "type": "function",
      "constant": true
    },
    {
      "inputs": [
        {
          "internalType": "address payable",
          "name": "rcv",
          "type": "address"
        }
      ],
      "name": "completeAuction",
      "outputs": [],
      "stateMutability": "payable",
      "type": "function",
      "payable": true
    }
  ],
  "bytecode": "0x6080604052602c60045534801561001557600080fd5b50610664806100256000396000f3fe6080604052600436106100555760003560e01c806323a750491461005a57806332e43a11146100975780635522c135146100c2578063b666ee82146100ed578063d98b9bb514610118578063f57f2e3b14610141575b600080fd5b34801561006657600080fd5b50610081600480360381019061007c91906104e3565b61015d565b60405161008e9190610580565b60405180910390f35b3480156100a357600080fd5b506100ac6101a6565b6040516100b99190610580565b60405180910390f35b3480156100ce57600080fd5b506100d76101ac565b6040516100e49190610580565b60405180910390f35b3480156100f957600080fd5b506101026101b2565b60405161010f9190610580565b60405180910390f35b34801561012457600080fd5b5061013f600480360381019061013a9190610535565b6101bc565b005b61015b6004803603810190610156919061050c565b610400565b005b6000600160008373ffffffffffffffffffffffffffffffffffffffff1673ffffffffffffffffffffffffffffffffffffffff168152602001908152602001600020549050919050565b60045481565b60035481565b6000600454905090565b80600160008473ffffffffffffffffffffffffffffffffffffffff1673ffffffffffffffffffffffffffffffffffffffff16815260200190815260200160002081905550600260009054906101000a900473ffffffffffffffffffffffffffffffffffffffff166000808473ffffffffffffffffffffffffffffffffffffffff1673ffffffffffffffffffffffffffffffffffffffff16815260200190815260200160002060006101000a81548173ffffffffffffffffffffffffffffffffffffffff021916908373ffffffffffffffffffffffffffffffffffffffff1602179055506102a7610450565b82816000019073ffffffffffffffffffffffffffffffffffffffff16908173ffffffffffffffffffffffffffffffffffffffff168152505033816020019073ffffffffffffffffffffffffffffffffffffffff16908173ffffffffffffffffffffffffffffffffffffffff16815250508181604001818152505042816060018181525050600581908060018154018082558091505060019003906000526020600020906004020160009091909190915060008201518160000160006101000a81548173ffffffffffffffffffffffffffffffffffffffff021916908373ffffffffffffffffffffffffffffffffffffffff16021790555060208201518160010160006101000a81548173ffffffffffffffffffffffffffffffffffffffff021916908373ffffffffffffffffffffffffffffffffffffffff16021790555060408201518160020155606082015181600301555050505050565b60003490508173ffffffffffffffffffffffffffffffffffffffff166108fc829081150290604051600060405180830381858888f1935050505015801561044b573d6000803e3d6000fd5b505050565b6040518060800160405280600073ffffffffffffffffffffffffffffffffffffffff168152602001600073ffffffffffffffffffffffffffffffffffffffff16815260200160008152602001600081525090565b6000813590506104b3816105e9565b92915050565b6000813590506104c881610600565b92915050565b6000813590506104dd81610617565b92915050565b6000602082840312156104f557600080fd5b6000610503848285016104a4565b91505092915050565b60006020828403121561051e57600080fd5b600061052c848285016104b9565b91505092915050565b6000806040838503121561054857600080fd5b6000610556858286016104a4565b9250506020610567858286016104ce565b9150509250929050565b61057a816105df565b82525050565b60006020820190506105956000830184610571565b92915050565b60006105a6826105bf565b9050919050565b60006105b8826105bf565b9050919050565b600073ffffffffffffffffffffffffffffffffffffffff82169050919050565b6000819050919050565b6105f28161059b565b81146105fd57600080fd5b50565b610609816105ad565b811461061457600080fd5b50565b610620816105df565b811461062b57600080fd5b5056fea2646970667358221220781c21954ce7606b1956f41ea148286a55c7cf6f09949d645ff08bb4cad3f2b464736f6c63430008000033",
  "immutableReferences": {},
  "source": "// SPDX-License-Identifier: MIT\npragma solidity >=0.4.21 <=0.8.4;\n\n//import \"@openzeppelin/contracts/utils/math/SafeMath.sol\";\n\ncontract SimpleStorage  {\n  //using SafeMath for uint;\n\n\n  mapping(address => address)  highest_Bidder; // sell_item -> bidder address\n  mapping(address => uint256)  bid_Transaction; // sell_item --> bid price\n  address payable  bidder;\n  uint256 public contract_amount ;\n  uint256 public dummy =44;\n\n  struct Bid_List \n  {\n     address sender_v;\n     address reciever_v;\n     uint256 amount_v;\n     uint Bid_time;\n  }\n\n  Bid_List[]  private Bids;  \n\n  function placeBid(address seller,uint256 bid) public\n  {     \n        //bid=bid*10**18;\n        //require(bid<=contract_amount,\"insufficient balance\");\n        //require(bid>bid_Transaction[seller],\"Bid should be higher than current one\");\n        bid_Transaction[seller]=bid;\n        highest_Bidder[seller]=bidder;\n        Bid_List memory t1;\n        t1.sender_v=seller;\n        t1.reciever_v=msg.sender;\n        t1.amount_v=bid;\n        t1.Bid_time=block.timestamp;\n        Bids.push(t1); \n        \n  } \n  function setdummy() public view returns(uint256)\n  {\n     return dummy;\n  }\n  function getHighestBid(address seller) public view returns(uint256)\n  {\n      \n      return bid_Transaction[seller];\n  }\n\n  /*function sendEth(address payable rcv_addr) public  payable\n  {\n    address payable aa=rcv_addr;\n    uint256 xs=msg.value;\n    aa.transfer(xs);\n  \n  }*/\n\n    function completeAuction(address payable rcv) public  payable\n  {\n      uint256 xs=msg.value;\n      rcv.transfer(xs);\n      /*contract_amount=contract_amount-bid_Transaction[seller];*/\n  }\n\n\n\n\n}\n",
  "sourcePath": "C:/First_Dapp/contracts/SimpleStorage.sol",
  "compiler": {
    "name": "solc",
    "version": "0.8.0+commit.c7dfd78e.Emscripten.clang"
  },
  "schemaVersion": "3.4.0",
  "updatedAt": "2021-06-06T22:25:32.179Z",
  "networkType": "ethereum",
  "devdoc": {
    "kind": "dev",
    "methods": {},
    "version": 1
  },
  "userdoc": {
    "kind": "user",
    "methods": {},
    "version": 1
  }
}