{
  "contractName": "SimpleStorage",
  "abi": [
    {
      "inputs": [],
      "name": "contract_amount",
      "outputs": [
        {
          "internalType": "uint256",
          "name": "",
          "type": "uint256"
        }
      ],
      "stateMutability": "view",
      "type": "function",
      "constant": true
    },
    {
      "inputs": [],
      "name": "dummy",
      "outputs": [
        {
          "internalType": "uint256",
          "name": "",
          "type": "uint256"
        }
      ],
      "stateMutability": "view",
      "type": "function",
      "constant": true
    },
    {
      "inputs": [
        {
          "internalType": "address",
          "name": "seller",
          "type": "address"
        },
        {
          "internalType": "uint256",
          "name": "bid",
          "type": "uint256"
        }
      ],
      "name": "placeBid",
      "outputs": [],
      "stateMutability": "nonpayable",
      "type": "function"
    },
    {
      "inputs": [],
      "name": "setdummy",
      "outputs": [
        {
          "internalType": "uint256",
          "name": "",
          "type": "uint256"
        }
      ],
      "stateMutability": "view",
      "type": "function",
      "constant": true
    },
    {
      "inputs": [
        {
          "internalType": "address",
          "name": "seller",
          "type": "address"
        }
      ],
      "name": "getHighestBid",
      "outputs": [
        {
          "internalType": "uint256",
          "name": "",
          "type": "uint256"
        }
      ],
      "stateMutability": "view",
      "type": "function",
      "constant": true
    },
    {
      "inputs": [
        {
          "internalType": "address payable",
          "name": "seller",
          "type": "address"
        }
      ],
      "name": "completeAuction",
      "outputs": [],
      "stateMutability": "payable",
      "type": "function",
      "payable": true
    }
  ],
  "bytecode": "0x6080604052602c60045534801561001557600080fd5b506105ab806100256000396000f3fe6080604052600436106100555760003560e01c806323a750491461005a57806332e43a11146100975780635522c135146100c2578063b666ee82146100ed578063d98b9bb514610118578063f57f2e3b14610141575b600080fd5b34801561006657600080fd5b50610081600480360381019061007c91906103c7565b61015d565b60405161008e9190610464565b60405180910390f35b3480156100a357600080fd5b506100ac6101a6565b6040516100b99190610464565b60405180910390f35b3480156100ce57600080fd5b506100d76101ac565b6040516100e49190610464565b60405180910390f35b3480156100f957600080fd5b506101026101b2565b60405161010f9190610464565b60405180910390f35b34801561012457600080fd5b5061013f600480360381019061013a9190610419565b6101bc565b005b61015b600480360381019061015691906103f0565b6102ac565b005b6000600160008373ffffffffffffffffffffffffffffffffffffffff1673ffffffffffffffffffffffffffffffffffffffff168152602001908152602001600020549050919050565b60045481565b60035481565b6000600454905090565b80600160008473ffffffffffffffffffffffffffffffffffffffff1673ffffffffffffffffffffffffffffffffffffffff16815260200190815260200160002081905550600260009054906101000a900473ffffffffffffffffffffffffffffffffffffffff166000808473ffffffffffffffffffffffffffffffffffffffff1673ffffffffffffffffffffffffffffffffffffffff16815260200190815260200160002060006101000a81548173ffffffffffffffffffffffffffffffffffffffff021916908373ffffffffffffffffffffffffffffffffffffffff16021790555061014d6004819055505050565b8073ffffffffffffffffffffffffffffffffffffffff166108fc600160008473ffffffffffffffffffffffffffffffffffffffff1673ffffffffffffffffffffffffffffffffffffffff168152602001908152602001600020549081150290604051600060405180830381858888f19350505050158015610331573d6000803e3d6000fd5b50600160008273ffffffffffffffffffffffffffffffffffffffff1673ffffffffffffffffffffffffffffffffffffffff1681526020019081526020016000205460035461037f919061047f565b60038190555050565b60008135905061039781610530565b92915050565b6000813590506103ac81610547565b92915050565b6000813590506103c18161055e565b92915050565b6000602082840312156103d957600080fd5b60006103e784828501610388565b91505092915050565b60006020828403121561040257600080fd5b60006104108482850161039d565b91505092915050565b6000806040838503121561042c57600080fd5b600061043a85828601610388565b925050602061044b858286016103b2565b9150509250929050565b61045e816104f7565b82525050565b60006020820190506104796000830184610455565b92915050565b600061048a826104f7565b9150610495836104f7565b9250828210156104a8576104a7610501565b5b828203905092915050565b60006104be826104d7565b9050919050565b60006104d0826104d7565b9050919050565b600073ffffffffffffffffffffffffffffffffffffffff82169050919050565b6000819050919050565b7f4e487b7100000000000000000000000000000000000000000000000000000000600052601160045260246000fd5b610539816104b3565b811461054457600080fd5b50565b610550816104c5565b811461055b57600080fd5b50565b610567816104f7565b811461057257600080fd5b5056fea2646970667358221220e0d64751d8e85f434bcfc4faef197d499ee69d51b3c4e5fde779cdb6f97debba64736f6c63430008000033",
  "immutableReferences": {},
  "source": "// SPDX-License-Identifier: MIT\npragma solidity >=0.4.21 <=0.8.4;\n\n//import \"@openzeppelin/contracts/utils/math/SafeMath.sol\";\n\ncontract SimpleStorage  {\n  //using SafeMath for uint;\n\n\n  mapping(address => address)  highest_Bidder; // sell_item -> bidder address\n  mapping(address => uint256)  bid_Transaction; // sell_item --> bid price\n  address payable  bidder;\n  uint256 public contract_amount ;\n  uint256 public dummy =44;\n\n\n\n  function placeBid(address seller,uint256 bid) public\n  {     \n        //bid=bid*10**18;\n        //require(bid<=contract_amount,\"insufficient balance\");\n        //require(bid>bid_Transaction[seller],\"Bid should be higher than current one\");\n        bid_Transaction[seller]=bid;\n        highest_Bidder[seller]=bidder;\n        dummy=333;\n        \n  } \n  function setdummy() public view returns(uint256)\n  {\n     return dummy;\n  }\n  function getHighestBid(address seller) public view returns(uint256)\n  {\n      \n      return bid_Transaction[seller];\n  }\n\n  /*function sendEth(address payable rcv_addr) public  payable\n  {\n    address payable aa=rcv_addr;\n    uint256 xs=msg.value;\n    aa.transfer(xs);\n  \n  }*/\n\n    function completeAuction(address payable seller) public  payable\n  {\n      seller.transfer(bid_Transaction[seller]);\n      contract_amount=contract_amount-bid_Transaction[seller];\n  }\n\n\n\n\n}\n",
  "sourcePath": "C:/First_Dapp/contracts/SimpleStorage.sol",
  "compiler": {
    "name": "solc",
    "version": "0.8.0+commit.c7dfd78e.Emscripten.clang"
  },
  "schemaVersion": "3.4.0",
  "updatedAt": "2021-05-27T19:00:33.856Z",
  "networkType": "ethereum",
  "devdoc": {
    "kind": "dev",
    "methods": {},
    "version": 1
  },
  "userdoc": {
    "kind": "user",
    "methods": {},
    "version": 1
  }
}