{
  "contractName": "SimpleStorage",
  "abi": [
    {
      "inputs": [],
      "name": "contract_amount",
      "outputs": [
        {
          "internalType": "uint256",
          "name": "",
          "type": "uint256"
        }
      ],
      "stateMutability": "view",
      "type": "function",
      "constant": true
    },
    {
      "inputs": [],
      "name": "dummy",
      "outputs": [
        {
          "internalType": "uint256",
          "name": "",
          "type": "uint256"
        }
      ],
      "stateMutability": "view",
      "type": "function",
      "constant": true
    },
    {
      "inputs": [
        {
          "internalType": "address",
          "name": "seller",
          "type": "address"
        },
        {
          "internalType": "uint256",
          "name": "bid",
          "type": "uint256"
        }
      ],
      "name": "placeBid",
      "outputs": [],
      "stateMutability": "nonpayable",
      "type": "function"
    },
    {
      "inputs": [],
      "name": "setdummy",
      "outputs": [
        {
          "internalType": "uint256",
          "name": "",
          "type": "uint256"
        }
      ],
      "stateMutability": "view",
      "type": "function",
      "constant": true
    },
    {
      "inputs": [
        {
          "internalType": "address",
          "name": "seller",
          "type": "address"
        }
      ],
      "name": "getHighestBid",
      "outputs": [
        {
          "internalType": "uint256",
          "name": "",
          "type": "uint256"
        }
      ],
      "stateMutability": "view",
      "type": "function",
      "constant": true
    },
    {
      "inputs": [
        {
          "internalType": "address payable",
          "name": "rcv",
          "type": "address"
        }
      ],
      "name": "completeAuction",
      "outputs": [],
      "stateMutability": "payable",
      "type": "function",
      "payable": true
    },
    {
      "inputs": [],
      "name": "returnLog",
      "outputs": [
        {
          "components": [
            {
              "internalType": "address",
              "name": "sender_v",
              "type": "address"
            },
            {
              "internalType": "address",
              "name": "reciever_v",
              "type": "address"
            },
            {
              "internalType": "uint256",
              "name": "amount_v",
              "type": "uint256"
            },
            {
              "internalType": "uint256",
              "name": "Bid_time",
              "type": "uint256"
            }
          ],
          "internalType": "struct SimpleStorage.Bid_List[]",
          "name": "",
          "type": "tuple[]"
        }
      ],
      "stateMutability": "view",
      "type": "function",
      "constant": true
    },
    {
      "inputs": [],
      "name": "cleanArray",
      "outputs": [],
      "stateMutability": "payable",
      "type": "function",
      "payable": true
    }
  ],
  "bytecode": "0x6080604052602c60045534801561001557600080fd5b506109cb806100256000396000f3fe60806040526004361061007b5760003560e01c8063932b24ad1161004e578063932b24ad1461013e578063b666ee8214610148578063d98b9bb514610173578063f57f2e3b1461019c5761007b565b806323a750491461008057806332e43a11146100bd5780635522c135146100e85780638a7cfee414610113575b600080fd5b34801561008c57600080fd5b506100a760048036038101906100a29190610706565b6101b8565b6040516100b491906108ae565b60405180910390f35b3480156100c957600080fd5b506100d2610201565b6040516100df91906108ae565b60405180910390f35b3480156100f457600080fd5b506100fd610207565b60405161010a91906108ae565b60405180910390f35b34801561011f57600080fd5b5061012861020d565b604051610135919061088c565b60405180910390f35b61014661032c565b005b34801561015457600080fd5b5061015d61033c565b60405161016a91906108ae565b60405180910390f35b34801561017f57600080fd5b5061019a60048036038101906101959190610758565b610346565b005b6101b660048036038101906101b1919061072f565b61058a565b005b6000600160008373ffffffffffffffffffffffffffffffffffffffff1673ffffffffffffffffffffffffffffffffffffffff168152602001908152602001600020549050919050565b60045481565b60035481565b60606005805480602002602001604051908101604052809291908181526020016000905b8282101561032357838290600052602060002090600402016040518060800160405290816000820160009054906101000a900473ffffffffffffffffffffffffffffffffffffffff1673ffffffffffffffffffffffffffffffffffffffff1673ffffffffffffffffffffffffffffffffffffffff1681526020016001820160009054906101000a900473ffffffffffffffffffffffffffffffffffffffff1673ffffffffffffffffffffffffffffffffffffffff1673ffffffffffffffffffffffffffffffffffffffff1681526020016002820154815260200160038201548152505081526020019060010190610231565b50505050905090565b6005600061033a91906105da565b565b6000600454905090565b80600160008473ffffffffffffffffffffffffffffffffffffffff1673ffffffffffffffffffffffffffffffffffffffff16815260200190815260200160002081905550600260009054906101000a900473ffffffffffffffffffffffffffffffffffffffff166000808473ffffffffffffffffffffffffffffffffffffffff1673ffffffffffffffffffffffffffffffffffffffff16815260200190815260200160002060006101000a81548173ffffffffffffffffffffffffffffffffffffffff021916908373ffffffffffffffffffffffffffffffffffffffff1602179055506104316105fe565b82816000019073ffffffffffffffffffffffffffffffffffffffff16908173ffffffffffffffffffffffffffffffffffffffff168152505033816020019073ffffffffffffffffffffffffffffffffffffffff16908173ffffffffffffffffffffffffffffffffffffffff16815250508181604001818152505042816060018181525050600581908060018154018082558091505060019003906000526020600020906004020160009091909190915060008201518160000160006101000a81548173ffffffffffffffffffffffffffffffffffffffff021916908373ffffffffffffffffffffffffffffffffffffffff16021790555060208201518160010160006101000a81548173ffffffffffffffffffffffffffffffffffffffff021916908373ffffffffffffffffffffffffffffffffffffffff16021790555060408201518160020155606082015181600301555050505050565b60003490508173ffffffffffffffffffffffffffffffffffffffff166108fc829081150290604051600060405180830381858888f193505050501580156105d5573d6000803e3d6000fd5b505050565b50805460008255600402906000526020600020908101906105fb9190610652565b50565b6040518060800160405280600073ffffffffffffffffffffffffffffffffffffffff168152602001600073ffffffffffffffffffffffffffffffffffffffff16815260200160008152602001600081525090565b5b808211156106c357600080820160006101000a81549073ffffffffffffffffffffffffffffffffffffffff02191690556001820160006101000a81549073ffffffffffffffffffffffffffffffffffffffff02191690556002820160009055600382016000905550600401610653565b5090565b6000813590506106d681610950565b92915050565b6000813590506106eb81610967565b92915050565b6000813590506107008161097e565b92915050565b60006020828403121561071857600080fd5b6000610726848285016106c7565b91505092915050565b60006020828403121561074157600080fd5b600061074f848285016106dc565b91505092915050565b6000806040838503121561076b57600080fd5b6000610779858286016106c7565b925050602061078a858286016106f1565b9150509250929050565b60006107a08383610819565b60808301905092915050565b6107b581610902565b82525050565b60006107c6826108d9565b6107d081856108f1565b93506107db836108c9565b8060005b8381101561080c5781516107f38882610794565b97506107fe836108e4565b9250506001810190506107df565b5085935050505092915050565b60808201600082015161082f60008501826107ac565b50602082015161084260208501826107ac565b506040820151610855604085018261086e565b506060820151610868606085018261086e565b50505050565b61087781610946565b82525050565b61088681610946565b82525050565b600060208201905081810360008301526108a681846107bb565b905092915050565b60006020820190506108c3600083018461087d565b92915050565b6000819050602082019050919050565b600081519050919050565b6000602082019050919050565b600082825260208201905092915050565b600061090d82610926565b9050919050565b600061091f82610926565b9050919050565b600073ffffffffffffffffffffffffffffffffffffffff82169050919050565b6000819050919050565b61095981610902565b811461096457600080fd5b50565b61097081610914565b811461097b57600080fd5b50565b61098781610946565b811461099257600080fd5b5056fea26469706673582212201a08aa22aaa49eb8efe302aabb6ad40d3d19ef6949a096003cd6216f088bc73e64736f6c63430008000033",
  "immutableReferences": {},
  "source": "// SPDX-License-Identifier: MIT\npragma solidity >=0.4.21 <=0.8.4;\n\n//import \"@openzeppelin/contracts/utils/math/SafeMath.sol\";\n\ncontract SimpleStorage  {\n  //using SafeMath for uint;\n\n\n  mapping(address => address)  highest_Bidder; // sell_item -> bidder address\n  mapping(address => uint256)  bid_Transaction; // sell_item --> bid price\n  address payable  bidder;\n  uint256 public contract_amount ;\n  uint256 public dummy =44;\n\n  struct Bid_List \n  {\n     address sender_v;\n     address reciever_v;\n     uint256 amount_v;\n     uint Bid_time;\n  }\n\n  Bid_List[]  private Bids;  \n\n  function placeBid(address seller,uint256 bid) public\n  {     \n        //bid=bid*10**18;\n        //require(bid<=contract_amount,\"insufficient balance\");\n        //require(bid>bid_Transaction[seller],\"Bid should be higher than current one\");\n        bid_Transaction[seller]=bid;\n        highest_Bidder[seller]=bidder;\n        Bid_List memory t1;\n        t1.sender_v=seller;\n        t1.reciever_v=msg.sender;\n        t1.amount_v=bid;\n        t1.Bid_time=block.timestamp;\n        Bids.push(t1); \n         \n  } \n  function setdummy() public view returns(uint256)\n  {\n     return dummy;\n  }\n  function getHighestBid(address seller) public view returns(uint256)\n  {\n      \n      return bid_Transaction[seller];\n  }\n\n  /*function sendEth(address payable rcv_addr) public  payable\n  {\n    address payable aa=rcv_addr;\n    uint256 xs=msg.value;\n    aa.transfer(xs);\n  \n  }*/\n\n    function completeAuction(address payable rcv) public  payable\n  {\n      uint256 xs=msg.value;\n      rcv.transfer(xs);\n      /*contract_amount=contract_amount-bid_Transaction[seller];*/\n  }\n\n  function returnLog() public view returns (Bid_List[] memory) {\n        return Bids;\n  }\n\n  function  cleanArray() public payable {\n      delete Bids;\n      \n  }\n\n}\n",
  "sourcePath": "C:/First_Dapp/contracts/SimpleStorage.sol",
  "compiler": {
    "name": "solc",
    "version": "0.8.0+commit.c7dfd78e.Emscripten.clang"
  },
  "schemaVersion": "3.4.0",
  "updatedAt": "2021-06-12T22:02:55.641Z",
  "networkType": "ethereum",
  "devdoc": {
    "kind": "dev",
    "methods": {},
    "version": 1
  },
  "userdoc": {
    "kind": "user",
    "methods": {},
    "version": 1
  }
}